{
    "contractName": "signin",
    "abi": [
        {
            "inputs": [],
            "name": "getName",
            "outputs": [
                {
                    "internalType": "string",
                    "name": "",
                    "type": "string"
                }
            ],
            "stateMutability": "view",
            "type": "function"
        }
    ],
    "bytecode": "60c060405260046080819052630848a4a960e31b60a09081526100259160009190610038565b5034801561003257600080fd5b5061010c565b828054610044906100d1565b90600052602060002090601f01602090048101928261006657600085556100ac565b82601f1061007f57805160ff19168380011785556100ac565b828001600101855582156100ac579182015b828111156100ac578251825591602001919060010190610091565b506100b89291506100bc565b5090565b5b808211156100b857600081556001016100bd565b600181811c908216806100e557607f821691505b6020821081141561010657634e487b7160e01b600052602260045260246000fd5b50919050565b6101a68061011b6000396000f3fe608060405234801561001057600080fd5b506004361061002b5760003560e01c806317d7de7c14610030575b600080fd5b61003861004e565b60405161004591906100e0565b60405180910390f35b60606000805461005d90610135565b80601f016020809104026020016040519081016040528092919081815260200182805461008990610135565b80156100d65780601f106100ab576101008083540402835291602001916100d6565b820191906000526020600020905b8154815290600101906020018083116100b957829003601f168201915b5050505050905090565b600060208083528351808285015260005b8181101561010d578581018301518582016040015282016100f1565b8181111561011f576000604083870101525b50601f01601f1916929092016040019392505050565b600181811c9082168061014957607f821691505b6020821081141561016a57634e487b7160e01b600052602260045260246000fd5b5091905056fea2646970667358221220467c76159fb9b4423a38a41cbe401013b62b2220e53c4fd9f0cf0aa29447780864736f6c634300080b0033",
    "sourcePath": "c:/Users/Polinomy/Desktop/Ethereum/aproject/contracts/market.sol",
    "compiler": {
        "name": "solc",
        "version": "0.8.11+commit.d7f03943"
    },
    "functionHashes": {
        "getName()": "17d7de7c"
    },
    "gasEstimates": {
        "creation": {
            "codeDepositCost": "84400",
            "executionCost": "infinite",
            "totalCost": "infinite"
        },
        "external": {
            "getName()": "infinite"
        }
    }
}